:020000020000FC
:10000000F0C140C0B0C022C1ECC134C0EAC1E9C1F6
:10001000E8C1E7C150C0C2C0E4C1E3C1E2C1039579
:10002000D0E80D1708F000272054696E79204D495B
:100030004449204D6572676572204669726D77612B
:1000400072652056657273696F6E20312E302050B4
:10005000726F6772616D6D6564206279204C2E53FA
:100060006368656C6C696E6720494E515545203256
:10007000303130200F930FB70F9370680F910FBF7F
:100080000F911895F8940F930FB70F931F9302B722
:100090001DE1010F09BD0BB70F7B0BBFB0E01124B1
:1000A00000E108BF09B7006109BF1F910F910FBFA1
:1000B0000F9178941895F8940F930FB70F931F939F
:1000C000EF93FF9302B71DE3010F09BDB03018F4A1
:1000D0001124B1E040C0B93038F41694B29B02C08C
:1000E00000E8102AB39537C0012D083F68F0083F9B
:1000F00069F00A3F99F00B3FA1F00C3FA9F00E3FC9
:10010000C9F00F3FE9F01EC0D9D01CC0D2E09D134A
:1001100091E0D1E09D1316C0A16014C091E0A260EF
:1001200011C091E0A4600EC0D1E09D130BC090E01F
:10013000A86008C08160009248010092490102C095
:10014000A06200C009B70F7E09BF00E40ABF0BB769
:1001500000640BBF00C0FF91EF911F910F910FBF83
:100160000F9178941895B1991895F8940F930FB74B
:100170000F931F9302B71DE1010F08BD0BB70F7D51
:100180000BBFC0E0222408E008BF09B7086009BF20
:100190001F910F910FBF0F9178941895F8940F93BA
:1001A0000FB70F931F93EF93FF9302B71DE3010F58
:1001B00008BDC03019F42224C1E040C0C93038F471
:1001C0002694B19B02C000E8202AC39537C0022DB7
:1001D000083F68F0083F69F00A3F99F00B3FA1F033
:1001E0000C3FA9F00E3FC9F00F3FE9F01EC0A0D0B0
:1001F0001CC0D1E09D1392E0D2E09D1316C0A16017
:1002000014C092E0A26011C092E0A4600EC0D2E0DF
:100210009D130BC090E0A86008C0826000924A0164
:1002200000924B0102C0A06200C009B7077F09BF5E
:1002300000E20ABF0BB700620BBF00C0FF91EF9155
:100240001F910F910FBF0F9178941895F8940F9309
:100250000FB70F931F930FB51EE3010F0EBD09E0FB
:10026000F01648F4F39430FC03C0C09836940DC0E7
:10027000C09A36940AC00AE0F01618F4F394C09AB3
:1002800004C009B70F7B09BF71601F910F910FBFA9
:100290000F917894189570FFFECF7E7F302E01E08D
:1002A000F02E0FB51DE3010F0EBDC098F89400E4C9
:1002B00008BF09B7006409BF78940895F0E0E0E64C
:1002C000E40DF01D00834394D0E44D1608F044245F
:1002D000042D0395D0E40D1708F0002705110895AB
:1002E00080640895F0E0E0E6E50DF01D0081539490
:1002F000D0E45D1608F055240895F4DF5414A1F0FD
:1003000007FD01C0FACFF0E0E0E6E50DF01D008149
:10031000073F11F007FD0AC05394D0E45D1608F0C2
:100320005524541409F0EFCF7F7E7D7F8F7B089595
:10033000F0E0E0EAE60DF01D00836394D0E46D1672
:1003400008F06624062D0395D0E40D1708F0002769
:100350000711089580680895F0E0E0EAE70DF01DC8
:1003600000817394D0E47D1608F077240895F4DFBB
:100370007614A1F007FD01C0FACFF0E0E0EAE70D46
:10038000F01D0081073F11F007FD0AC07394D0E40F
:100390007D1608F07724761409F0EFCF7F7D7B7F00
:1003A0008F77089507FF07C0003F10F0AA2403C00D
:1003B0000A1559F0A02EF0E0E0EEE80DF01D0083E4
:1003C0008394D0E28D1608F088240895F0E0E0EEE2
:1003D000E90DF01D00819394D0E29D1608F0992458
:1003E000089500E806BD00E006BDF1E0E0E60FEF8D
:1003F0000293F030E1F7E036D1F701E00EBF0FE5F0
:100400000DBF05D001B50D6001BD37D235C0002448
:10041000442455246624772488248824AA2777270F
:10042000882790E0716014D201E007BBC09AC29A9D
:10043000C19A02E003BF04E000BF02E005BF02E092
:1004400005BB00E40ABF0BB700640BBF00E20ABFA4
:100450000BB700620BBF0092460100924701009269
:1004600048010092490100924A0100924B0109B7EC
:10047000026009BF78940895A89586FF01C03DDF0A
:1004800087FF01C074DF0BB706FD08C009B704FD84
:1004900005C000E40ABF0BB700640BBF0BB705FD36
:1004A00008C009B703FD05C000E20ABF0BB7006230
:1004B0000BBF75FD04C0451411F014DF94D074FD1A
:1004C00004C0671411F048DF10D170FFF2CFA030E4
:1004D00009F04ED0891431F079DFDDDE009246015B
:1004E0000092470177FFC8CF7F7780FF12C000914D
:1004F000480110914901D1E01D0F001D00934801F2
:10050000109349011F34D2E10D0718F08E7FB5D149
:100510002EC081FF12C000914A0110914B01D1E021
:100520001D0F001D00934A0110934B011F34D2E1AF
:100530000D0718F08D7FA1D11AC080FD03C081FD89
:1005400001C015C00091460110914701D1E01D0F77
:10055000001D0093460110934701183CD7E00D079A
:1005600030F00092460100924701A06100C084CFA4
:10057000A03009F40895A0FF08C0AE7F08EF8BDE1D
:100580000092460100924701F3CFA1FF08C0AD7F62
:100590000AEF81DE0092460100924701E9CFA2FFF7
:1005A00008C0AB7F0BEF77DE009246010092470157
:1005B000DFCFA3FF08C0A77F0CEF6DDE00924601DE
:1005C00000924701D5CFA4FF04C0AF7E0EEF63DEDB
:1005D000CFCFA5FFCDCFAF7D0FEF5DDE00924601FF
:1005E00000924701C5CF202F07FF40C0003F21F4F4
:1005F00070617D7FD7DE78C0073F21F47F7E7D7FED
:10060000D1DE72C0013F41F47F7E726051E0BB24B5
:10061000F1E0E0E0208368C0023F41F47F7E726039
:1006200052E0BB24F1E0E0E020835EC0033F41F4F0
:100630007F7E726051E0BB24F1E0E0E0208354C093
:10064000063F41F47F7E72605527BB24F1E0E0E075
:10065000208322C07F7E7260007F51E010EC011386
:1006600052E0BB24F1E0E0E020833EC074FF02C012
:1006700099DE3AC071FF38C0F1E0E1E0EB0DF01D0A
:100680002083B394B51680F1BB2400910001007F54
:1006900010EE011301C010C00091000183DE11E0D3
:1006A000511710F1009101017DDE12E05117E0F0C9
:1006B0000091020177DE18C0009100010F70000F59
:1006C00003950395F1E0E6E0E00FF01D00910201D3
:1006D0008894079502930091010108F40068029341
:1006E000009100017ED000C00895202F07FF3BC07D
:1006F000003F21F470627B7F55DE72C0073F21F41A
:100700007F7D7B7F4FDE6CC0013F19F47F7D7B7F57
:1007100067C0023F41F47F7D746062E0CC24F1E069
:10072000E3E020835DC0033F41F47F7D746061E0BE
:10073000CC24F1E0E3E02083D7CF063F41F47F7D76
:1007400074606627CC24F1E0E3E0208321C07F7D44
:100750007460007F61E010EC011362E0CC24F1E0F2
:10076000E3E020833DC075FF02C01CDE39C072FF8C
:1007700037C0F1E0E4E0EC0DF01D2083C394C61611
:1007800078F1CC240091030110EE011301C010C0D8
:100790000091030107DE11E0611710F100910401DF
:1007A00001DE12E06117E0F000910501FBDD18C0E9
:1007B000009103010F70000F03950395F1E0E6E24D
:1007C000E00FF01D009105018894079502930091B8
:1007D000040108F4006802930091030102D000C0F4
:1007E0000895102FDFDD1F70110F012FF1E0E6E0FB
:1007F000E00FF01D11912081F1E0E6E2E00FF01D25
:1008000031914081303019F4403209F416C045FD71
:100810000DC00027031B302F00E2040B402F131BD9
:10082000240B203450F01127222707C04F71130FDB
:10083000241F203410F01FEF2FE3220F17FD21603B
:100840001F77012F0F77AEDD022F0F77ABDD0895F5
:1008500010E1F1E0E7E2A89500E0029300E20293E4
:100860001A95C9F710E1F1E0E7E4A89500E00293DA
:1008700000E202931A95C9F70895442704D04395DE
:100880004031E0F30895A89500EB042B04DD0BE75D
:1008900002DD002700DDA89500EE042BFCDC00271C
:1008A000FADC00E4F8DCA89500EB042BF4DC00E4AF
:1008B000F2DC0027F0DC00EB042BEDDC01E0EBDCEC
:1008C0000027E9DC00EB042BE6DC09E7E4DC002789
:1008D000E2DC3327A89500E8042BDDDC032FDBDC0A
:1008E0000027D9DC33953038A8F300EB042BD3DC98
:1008F00007E0D1DC04E6CFDC00EB042BCCDC0BE022
:0E090000CADC0FE7C8DCA4DFAA2490E008954B
:00000001FF
